{
  "_format": "hh-sol-artifact-1",
  "contractName": "Staking",
  "sourceName": "contracts/stakingV2.sol",
  "abi": [
    {
      "inputs": [],
      "stateMutability": "payable",
      "type": "constructor"
    },
    {
      "anonymous": false,
      "inputs": [
        {
          "indexed": false,
          "internalType": "uint256",
          "name": "positionId",
          "type": "uint256"
        },
        {
          "indexed": false,
          "internalType": "address",
          "name": "walletAddress",
          "type": "address"
        },
        {
          "indexed": false,
          "internalType": "address",
          "name": "tokenAddress",
          "type": "address"
        },
        {
          "indexed": false,
          "internalType": "uint256",
          "name": "amount",
          "type": "uint256"
        },
        {
          "indexed": false,
          "internalType": "uint256",
          "name": "lockPeriod",
          "type": "uint256"
        }
      ],
      "name": "Staked",
      "type": "event"
    },
    {
      "anonymous": false,
      "inputs": [
        {
          "indexed": false,
          "internalType": "uint256",
          "name": "positionId",
          "type": "uint256"
        },
        {
          "indexed": false,
          "internalType": "address",
          "name": "walletAddress",
          "type": "address"
        },
        {
          "indexed": false,
          "internalType": "uint256",
          "name": "amount",
          "type": "uint256"
        },
        {
          "indexed": false,
          "internalType": "uint256",
          "name": "interest",
          "type": "uint256"
        }
      ],
      "name": "Withdrawn",
      "type": "event"
    },
    {
      "inputs": [
        {
          "internalType": "address",
          "name": "token",
          "type": "address"
        }
      ],
      "name": "addAllowedToken",
      "outputs": [],
      "stateMutability": "nonpayable",
      "type": "function"
    },
    {
      "inputs": [
        {
          "internalType": "uint256",
          "name": "",
          "type": "uint256"
        }
      ],
      "name": "allowedTokens",
      "outputs": [
        {
          "internalType": "address",
          "name": "",
          "type": "address"
        }
      ],
      "stateMutability": "view",
      "type": "function"
    },
    {
      "inputs": [
        {
          "internalType": "uint256",
          "name": "weiAmount",
          "type": "uint256"
        },
        {
          "internalType": "uint256",
          "name": "percentInterest",
          "type": "uint256"
        }
      ],
      "name": "calculateInterest",
      "outputs": [
        {
          "internalType": "uint256",
          "name": "",
          "type": "uint256"
        }
      ],
      "stateMutability": "pure",
      "type": "function"
    },
    {
      "inputs": [],
      "name": "currentPositionId",
      "outputs": [
        {
          "internalType": "uint256",
          "name": "",
          "type": "uint256"
        }
      ],
      "stateMutability": "view",
      "type": "function"
    },
    {
      "inputs": [
        {
          "internalType": "address",
          "name": "token",
          "type": "address"
        },
        {
          "internalType": "uint256",
          "name": "amount",
          "type": "uint256"
        }
      ],
      "name": "depositTokensForInterest",
      "outputs": [],
      "stateMutability": "nonpayable",
      "type": "function"
    },
    {
      "inputs": [],
      "name": "getAllowedTokens",
      "outputs": [
        {
          "internalType": "address[]",
          "name": "",
          "type": "address[]"
        }
      ],
      "stateMutability": "view",
      "type": "function"
    },
    {
      "inputs": [],
      "name": "getInterestRates",
      "outputs": [
        {
          "internalType": "uint256[]",
          "name": "",
          "type": "uint256[]"
        }
      ],
      "stateMutability": "view",
      "type": "function"
    },
    {
      "inputs": [],
      "name": "getLockPeriods",
      "outputs": [
        {
          "internalType": "uint256[]",
          "name": "",
          "type": "uint256[]"
        }
      ],
      "stateMutability": "view",
      "type": "function"
    },
    {
      "inputs": [
        {
          "internalType": "uint256",
          "name": "positionId",
          "type": "uint256"
        }
      ],
      "name": "getPositionById",
      "outputs": [
        {
          "components": [
            {
              "internalType": "uint256",
              "name": "positionId",
              "type": "uint256"
            },
            {
              "internalType": "address",
              "name": "walletAddress",
              "type": "address"
            },
            {
              "internalType": "address",
              "name": "tokenAddress",
              "type": "address"
            },
            {
              "internalType": "uint256",
              "name": "createdDate",
              "type": "uint256"
            },
            {
              "internalType": "uint256",
              "name": "unlockDate",
              "type": "uint256"
            },
            {
              "internalType": "uint256",
              "name": "percentInterest",
              "type": "uint256"
            },
            {
              "internalType": "uint256",
              "name": "weiStaked",
              "type": "uint256"
            },
            {
              "internalType": "uint256",
              "name": "weiInterest",
              "type": "uint256"
            },
            {
              "internalType": "bool",
              "name": "open",
              "type": "bool"
            }
          ],
          "internalType": "struct Staking.Position",
          "name": "",
          "type": "tuple"
        }
      ],
      "stateMutability": "view",
      "type": "function"
    },
    {
      "inputs": [
        {
          "internalType": "address",
          "name": "walletAddress",
          "type": "address"
        }
      ],
      "name": "getPositionIdsForAddress",
      "outputs": [
        {
          "internalType": "uint256[]",
          "name": "",
          "type": "uint256[]"
        }
      ],
      "stateMutability": "view",
      "type": "function"
    },
    {
      "inputs": [
        {
          "internalType": "address",
          "name": "",
          "type": "address"
        }
      ],
      "name": "isTokenAllowed",
      "outputs": [
        {
          "internalType": "bool",
          "name": "",
          "type": "bool"
        }
      ],
      "stateMutability": "view",
      "type": "function"
    },
    {
      "inputs": [
        {
          "internalType": "uint256",
          "name": "",
          "type": "uint256"
        }
      ],
      "name": "lockPeriods",
      "outputs": [
        {
          "internalType": "uint256",
          "name": "",
          "type": "uint256"
        }
      ],
      "stateMutability": "view",
      "type": "function"
    },
    {
      "inputs": [],
      "name": "owner",
      "outputs": [
        {
          "internalType": "address",
          "name": "",
          "type": "address"
        }
      ],
      "stateMutability": "view",
      "type": "function"
    },
    {
      "inputs": [
        {
          "internalType": "address",
          "name": "",
          "type": "address"
        },
        {
          "internalType": "uint256",
          "name": "",
          "type": "uint256"
        }
      ],
      "name": "positionIdsByAddress",
      "outputs": [
        {
          "internalType": "uint256",
          "name": "",
          "type": "uint256"
        }
      ],
      "stateMutability": "view",
      "type": "function"
    },
    {
      "inputs": [
        {
          "internalType": "uint256",
          "name": "",
          "type": "uint256"
        }
      ],
      "name": "positions",
      "outputs": [
        {
          "internalType": "uint256",
          "name": "positionId",
          "type": "uint256"
        },
        {
          "internalType": "address",
          "name": "walletAddress",
          "type": "address"
        },
        {
          "internalType": "address",
          "name": "tokenAddress",
          "type": "address"
        },
        {
          "internalType": "uint256",
          "name": "createdDate",
          "type": "uint256"
        },
        {
          "internalType": "uint256",
          "name": "unlockDate",
          "type": "uint256"
        },
        {
          "internalType": "uint256",
          "name": "percentInterest",
          "type": "uint256"
        },
        {
          "internalType": "uint256",
          "name": "weiStaked",
          "type": "uint256"
        },
        {
          "internalType": "uint256",
          "name": "weiInterest",
          "type": "uint256"
        },
        {
          "internalType": "bool",
          "name": "open",
          "type": "bool"
        }
      ],
      "stateMutability": "view",
      "type": "function"
    },
    {
      "inputs": [
        {
          "internalType": "address",
          "name": "token",
          "type": "address"
        }
      ],
      "name": "removeAllowedToken",
      "outputs": [],
      "stateMutability": "nonpayable",
      "type": "function"
    },
    {
      "inputs": [
        {
          "internalType": "uint256",
          "name": "lockPeriod",
          "type": "uint256"
        }
      ],
      "name": "stakeEther",
      "outputs": [],
      "stateMutability": "payable",
      "type": "function"
    },
    {
      "inputs": [
        {
          "internalType": "uint256",
          "name": "lockPeriod",
          "type": "uint256"
        },
        {
          "internalType": "address",
          "name": "token",
          "type": "address"
        },
        {
          "internalType": "uint256",
          "name": "amount",
          "type": "uint256"
        }
      ],
      "name": "stakeTokens",
      "outputs": [],
      "stateMutability": "nonpayable",
      "type": "function"
    },
    {
      "inputs": [
        {
          "internalType": "uint256",
          "name": "",
          "type": "uint256"
        }
      ],
      "name": "tiers",
      "outputs": [
        {
          "internalType": "uint256",
          "name": "",
          "type": "uint256"
        }
      ],
      "stateMutability": "view",
      "type": "function"
    },
    {
      "inputs": [
        {
          "internalType": "uint256",
          "name": "positionId",
          "type": "uint256"
        }
      ],
      "name": "withdraw",
      "outputs": [],
      "stateMutability": "nonpayable",
      "type": "function"
    },
    {
      "inputs": [
        {
          "internalType": "address",
          "name": "token",
          "type": "address"
        },
        {
          "internalType": "uint256",
          "name": "amount",
          "type": "uint256"
        }
      ],
      "name": "withdrawTokens",
      "outputs": [],
      "stateMutability": "nonpayable",
      "type": "function"
    }
  ],
  "bytecode": "0x600080546001600160a01b0319163317815560015561012060405262278d006080908152624f1a0060a0526276a70060c05262ed4e0060e0526301e133806101005262000050906005908162000115565b5060046020819052600a7f17ef568e3e12ab5b9c7254a8d58478811de00f9e6eb34345acd53bf8fd09d3ec5560147fabd6e7cb50984ff9c2f3e18a2660c3353dadf4e3291deeb275dae2cd1e44fe0555601e7f91da3fd0782e51c6b3986e9e672fd566868e71f3dbc2d6c2cd6fbb3e361af2a75560287f2e174c10e159ea99b867ce3205125c24a42d128804e4070ed6fcc8cc98166aa05560005260327f1a1e6821cde7d0159c0d293177871e09677b4e42307c7db3ba94f8648a5a050f5562000184565b8280548282559060005260206000209081019282156200015b579160200282015b828111156200015b578251829063ffffffff1690559160200191906001019062000136565b50620001699291506200016d565b5090565b5b808211156200016957600081556001016200016e565b6117f580620001946000396000f3fe60806040526004361061012a5760003560e01c80635e5f2e26116100ab578063b838ec861161006f578063b838ec86146103e3578063cec534d614610410578063e4f9084114610430578063e6cd15e014610443578063efdd7c0714610463578063f9eaee0d1461048357600080fd5b80635e5f2e261461028f578063674f7f1c146102c75780638da5cb5b146102dc57806390469a9d146102fc57806399fbab881461031c57600080fd5b806340d98a44116100f257806340d98a44146101ed5780634178617f1461021a57806341ee13be1461023a57806345eae3731461024f5780634c8f2a781461026f57600080fd5b8063024ece891461012f578063039af9eb1461015a57806306b091f9146101955780631131c8cd146101b75780632e1a7d4d146101cd575b600080fd5b34801561013b57600080fd5b506101446104c3565b60405161015191906114c2565b60405180910390f35b34801561016657600080fd5b5061018761017536600461150f565b60046020526000908152604090205481565b604051908152602001610151565b3480156101a157600080fd5b506101b56101b0366004611544565b610525565b005b3480156101c357600080fd5b5061018760015481565b3480156101d957600080fd5b506101b56101e836600461150f565b6105cf565b3480156101f957600080fd5b5061020d61020836600461156e565b610980565b6040516101519190611589565b34801561022657600080fd5b506101b561023536600461156e565b6109ec565b34801561024657600080fd5b5061020d610acb565b34801561025b57600080fd5b5061018761026a366004611544565b610b22565b34801561027b57600080fd5b5061018761028a36600461150f565b610b53565b34801561029b57600080fd5b506102af6102aa36600461150f565b610b74565b6040516001600160a01b039091168152602001610151565b3480156102d357600080fd5b5061020d610b9e565b3480156102e857600080fd5b506000546102af906001600160a01b031681565b34801561030857600080fd5b506101b561031736600461156e565b610c3e565b34801561032857600080fd5b5061039161033736600461150f565b600260208190526000918252604090912080546001820154928201546003830154600484015460058501546006860154600787015460089097015495976001600160a01b0390811697951695939492939192909160ff1689565b60408051998a526001600160a01b0398891660208b015296909716958801959095526060870193909352608086019190915260a085015260c084015260e0830152151561010082015261012001610151565b3480156103ef57600080fd5b506104036103fe36600461150f565b610cd7565b60405161015191906115c1565b34801561041c57600080fd5b506101b561042b36600461163e565b610dc5565b6101b561043e36600461150f565b61113e565b34801561044f57600080fd5b506101b561045e366004611544565b6113d5565b34801561046f57600080fd5b5061018761047e366004611673565b6114a0565b34801561048f57600080fd5b506104b361049e36600461156e565b60076020526000908152604090205460ff1681565b6040519015158152602001610151565b6060600680548060200260200160405190810160405280929190818152602001828054801561051b57602002820191906000526020600020905b81546001600160a01b031681526001909101906020018083116104fd575b5050505050905090565b6000546001600160a01b031633146105585760405162461bcd60e51b815260040161054f90611695565b60405180910390fd5b60405163a9059cbb60e01b8152336004820152602481018290526001600160a01b0383169063a9059cbb906044015b6020604051808303816000875af11580156105a6573d6000803e3d6000fd5b505050506040513d601f19601f820116820180604052508101906105ca91906116d6565b505050565b6000818152600260205260409020600101546001600160a01b0316331461062c5760405162461bcd60e51b81526020600482015260116024820152702737ba103cb7bab9103837b9b4ba34b7b760791b604482015260640161054f565b60008181526002602052604090206008015460ff1661068d5760405162461bcd60e51b815260206004820152601760248201527f506f736974696f6e20616c726561647920636c6f736564000000000000000000604482015260640161054f565b6000818152600260205260409020600401544210156106ee5760405162461bcd60e51b815260206004820152601960248201527f506f736974696f6e206e6f7420756e6c6f636b65642079657400000000000000604482015260640161054f565b6000818152600260205260408120600681015460059091015461071191906114a0565b60008381526002602081905260409091206007810183905560088101805460ff1916905501549091506001600160a01b03166107985760008281526002602052604090206006015433906108fc9061076a908490611715565b6040518115909202916000818181858888f19350505050158015610792573d6000803e3d6000fd5b50610922565b6000828152600260208190526040909120908101546006909101546001600160a01b03909116906107ca908390611715565b6040516370a0823160e01b81523060048201526001600160a01b038316906370a0823190602401602060405180830381865afa15801561080e573d6000803e3d6000fd5b505050506040513d601f19601f820116820180604052508101906108329190611728565b10156108805760405162461bcd60e51b815260206004820152601d60248201527f496e73756666696369656e7420636f6e74726163742062616c616e6365000000604482015260640161054f565b6000838152600260205260409020600601546001600160a01b0382169063a9059cbb9033906108b0908690611715565b6040516001600160e01b031960e085901b1681526001600160a01b03909216600483015260248201526044016020604051808303816000875af11580156108fb573d6000803e3d6000fd5b505050506040513d601f19601f8201168201806040525081019061091f91906116d6565b50505b6000828152600260209081526040918290206006015482518581523392810192909252818301526060810183905290517f1c84cc0f96161bdafea718a9094dd21c21d1fb2f9ca2ebb9bd4e39918efbaace9181900360800190a15050565b6001600160a01b0381166000908152600360209081526040918290208054835181840281018401909452808452606093928301828280156109e057602002820191906000526020600020905b8154815260200190600101908083116109cc575b50505050509050919050565b6000546001600160a01b03163314610a165760405162461bcd60e51b815260040161054f90611695565b6001600160a01b038116610a645760405162461bcd60e51b8152602060048201526015602482015274496e76616c696420746f6b656e206164647265737360581b604482015260640161054f565b6006805460018181019092557ff652222313e28459528d920b65115c16c04f3efc82aaedc97be59f3f377c0d3f0180546001600160a01b039093166001600160a01b031990931683179055600091825260076020526040909120805460ff19169091179055565b6060600580548060200260200160405190810160405280929190818152602001828054801561051b57602002820191906000526020600020905b815481526020019060010190808311610b05575050505050905090565b60036020528160005260406000208181548110610b3e57600080fd5b90600052602060002001600091509150505481565b60058181548110610b6357600080fd5b600091825260209091200154905081565b60068181548110610b8457600080fd5b6000918252602090912001546001600160a01b0316905081565b60055460609060009067ffffffffffffffff811115610bbf57610bbf611741565b604051908082528060200260200182016040528015610be8578160200160208202803683370190505b50905060005b600554811015610c38576000818152600460205260409020548251839083908110610c1b57610c1b611757565b602090810291909101015280610c308161176d565b915050610bee565b50919050565b6000546001600160a01b03163314610c685760405162461bcd60e51b815260040161054f90611695565b6001600160a01b038116610cb65760405162461bcd60e51b8152602060048201526015602482015274496e76616c696420746f6b656e206164647265737360581b604482015260640161054f565b6001600160a01b03166000908152600760205260409020805460ff19169055565b610d3a6040518061012001604052806000815260200160006001600160a01b0316815260200160006001600160a01b0316815260200160008152602001600081526020016000815260200160008152602001600081526020016000151581525090565b506000908152600260208181526040928390208351610120810185528154815260018201546001600160a01b039081169382019390935292810154909116928201929092526003820154606082015260048201546080820152600582015460a0820152600682015460c0820152600782015460e082015260089091015460ff16151561010082015290565b60008111610e155760405162461bcd60e51b815260206004820181905260248201527f416d6f756e74206d7573742062652067726561746572207468616e207a65726f604482015260640161054f565b6005548310610e5c5760405162461bcd60e51b8152602060048201526013602482015272125b9d985b1a59081b1bd8dac81c195c9a5bd9606a1b604482015260640161054f565b600083815260046020526040902054610eab5760405162461bcd60e51b815260206004820152601160248201527013585c1c1a5b99c81b9bdd08199bdd5b99607a1b604482015260640161054f565b6001600160a01b03821660009081526007602052604090205460ff16610f135760405162461bcd60e51b815260206004820152601d60248201527f546f6b656e206e6f7420616c6c6f77656420666f72207374616b696e67000000604482015260640161054f565b6040516323b872dd60e01b8152336004820152306024820152604481018290526001600160a01b038316906323b872dd906064016020604051808303816000875af1158015610f66573d6000803e3d6000fd5b505050506040513d601f19601f82011682018060405250810190610f8a91906116d6565b5060018054906000610f9b8361176d565b91905055506040518061012001604052806001548152602001336001600160a01b03168152602001836001600160a01b0316815260200142815260200160058581548110610feb57610feb611757565b9060005260206000200154426110019190611715565b815260008581526004602081815260408084205482860152808501879052606080860185905260016080968701819052805486526002808552838720895181558986015181840180546001600160a01b03199081166001600160a01b03938416179091558b870151938301805490911693821693909317909255898401516003808301919091558a8a01519782019790975560a0808b0151600583015560c08b0151600683015560e08b01516007830155610100909a01516008909101805460ff191691151591909117905533808852958552838720825481548085018355918952978690200196909655548251908152928301939093529287169281019290925281018490529081018590527fc70e72afb083ce5c70c0e0b97bc888f96d934369091fcfaf7daa278b57811ad2910160405180910390a1505050565b6000341161118e5760405162461bcd60e51b815260206004820181905260248201527f416d6f756e74206d7573742062652067726561746572207468616e207a65726f604482015260640161054f565b60055481106111d55760405162461bcd60e51b8152602060048201526013602482015272125b9d985b1a59081b1bd8dac81c195c9a5bd9606a1b604482015260640161054f565b6000818152600460205260409020546112245760405162461bcd60e51b815260206004820152601160248201527013585c1c1a5b99c81b9bdd08199bdd5b99607a1b604482015260640161054f565b600180549060006112348361176d565b91905055506040518061012001604052806001548152602001336001600160a01b0316815260200160006001600160a01b031681526020014281526020016005838154811061128557611285611757565b90600052602060002001544261129b9190611715565b815260008381526004602081815260408084205482860152348186018190526060808701869052600160809788018190528054875260028086528488208a5181558a87015181840180546001600160a01b03199081166001600160a01b03938416179091558c88015193830180549091169390911692909217909155898301516003808301919091558a8a01519782019790975560a0808b0151600583015560c08b0151600683015560e08b01516007830155610100909a01516008909101805460ff191691151591909117905533808852958552838720815481548084018355918952868920909101555483519081529384019490945290820193909352908101919091529081018390527fc70e72afb083ce5c70c0e0b97bc888f96d934369091fcfaf7daa278b57811ad2910160405180910390a150565b6000546001600160a01b031633146113ff5760405162461bcd60e51b815260040161054f90611695565b6001600160a01b03821660009081526007602052604090205460ff166114675760405162461bcd60e51b815260206004820152601d60248201527f546f6b656e206e6f7420616c6c6f77656420666f72207374616b696e67000000604482015260640161054f565b6040516323b872dd60e01b8152336004820152306024820152604481018290526001600160a01b038316906323b872dd90606401610587565b60006127106114af8385611786565b6114b9919061179d565b90505b92915050565b6020808252825182820181905260009190848201906040850190845b818110156115035783516001600160a01b0316835292840192918401916001016114de565b50909695505050505050565b60006020828403121561152157600080fd5b5035919050565b80356001600160a01b038116811461153f57600080fd5b919050565b6000806040838503121561155757600080fd5b61156083611528565b946020939093013593505050565b60006020828403121561158057600080fd5b6114b982611528565b6020808252825182820181905260009190848201906040850190845b81811015611503578351835292840192918401916001016115a5565b60006101208201905082518252602083015160018060a01b0380821660208501528060408601511660408501525050606083015160608301526080830151608083015260a083015160a083015260c083015160c083015260e083015160e0830152610100808401516116368285018215159052565b505092915050565b60008060006060848603121561165357600080fd5b8335925061166360208501611528565b9150604084013590509250925092565b6000806040838503121561168657600080fd5b50508035926020909101359150565b60208082526021908201527f4f6e6c79206f776e65722063616e2063616c6c20746869732066756e6374696f6040820152603760f91b606082015260800190565b6000602082840312156116e857600080fd5b815180151581146116f857600080fd5b9392505050565b634e487b7160e01b600052601160045260246000fd5b808201808211156114bc576114bc6116ff565b60006020828403121561173a57600080fd5b5051919050565b634e487b7160e01b600052604160045260246000fd5b634e487b7160e01b600052603260045260246000fd5b60006001820161177f5761177f6116ff565b5060010190565b80820281158282048414176114bc576114bc6116ff565b6000826117ba57634e487b7160e01b600052601260045260246000fd5b50049056fea2646970667358221220d99e6a58999c854fd974a0c81c63ab2c26aff6fb170cd801a474a74d0d13fcce64736f6c63430008110033",
  "linkReferences": {},
  "deployedLinkReferences": {}
}